:020000040800F2
:10000000283700209D010008BD8200087B5F0008A2
:10001000F581000821280008F5D300080000000041
:100020000000000000000000000000007D8B0008C0
:10003000A936000800000000C5860008978B00085C
:10004000B7010008B7010008B7010008B7010008B0
:10005000B7010008B7010008B7010008B7010008A0
:10006000B7010008B7010008B7010008B701000890
:10007000B7010008B7010008B7010008B701000880
:10008000B7010008B7010008B7010008B701000870
:10009000B7010008B7010008B7010008B701000860
:1000A000B7010008B7010008B7010008B701000850
:1000B000B7010008B7010008B7010008895F000810
:1000C0007D5F0008B7010008B7010008B70100080C
:1000D000B7010008D1D30008DDD30008B70100083C
:1000E000B7010008B7010008B7010008B701000810
:1000F000B7010008B7010008B7010008B701000800
:10010000B7010008B7010008B7010008B7010008EF
:10011000B1D00008B7010008B7010008B701000816
:10012000ED350008B7010008B7010008B701000865
:10013000B7010008B7010008B7010008B7010008BF
:10014000B7010008B7010008B7010008B7010008AF
:10015000B7010008B7010008F9350008E9D3000825
:10016000B7010008B7010008B7010008B70100088F
:10017000B7010008B7010008B7010008000000003F
:10018000B7010008B7010008DFF80CD000F098FABA
:1001900000480047E1E4000828370020064880476F
:1001A00006480047FEE7FEE7FEE7FEE7FEE7FEE75C
:1001B000FEE7FEE7FEE7FEE7318C00088901000854
:1001C0002DE9F05F0546002092469B46884606468C
:1001D000814640241BE0284641464746224600F01F
:1001E000A7F853465A46C01A914110D311461846F3
:1001F000224600F08EF82D1A67EB01084F46224682
:100200000120002100F085F817EB00094E41201E67
:10021000A4F10104DFDC484631462A464346BDE8E6
:10022000F09F2DE9F0410024061B254671F10006E0
:1002300005DA01240027D0EB070067EB0101161E49
:1002400073F1000605DA0027D2EB0702012567EB00
:100250000303FFF7B5FF86460E4617469C46AC42A1
:1002600004D00025D0EB050E65EB010624B100207B
:10027000D2EB000760EB030C704631463A4663460A
:10028000BDE8F08140EA01039B0703D009E008C9FB
:10029000121F08C0042AFAD203E011F8013B00F84B
:1002A000013B521EF9D27047D2B201E000F8012B97
:1002B000491EFBD270470022F6E710B513460A46E6
:1002C00004461946FFF7F0FF204610BD30B504463E
:1002D0000020034600E05B1C934203D2E05CCD5C4F
:1002E000401BF8D030BD30B50B460146002020221F
:1002F000012409E021FA02F59D4205D303FA02F533
:10030000491B04FA02F52844151EA2F10102F1DC92
:1003100030BD202A04DB203A00FA02F100207047A9
:100320009140C2F1200320FA03F319439040704733
:10033000202A04DB203A21FA02F00021704721FA3A
:1003400002F3D040C2F120029140084319467047A1
:100350002DE9FE4F804681EA0300C00F0C46009055
:1003600021F0004123F00045B8EB0200A94105D27D
:100370004046214690461C460B46024623F000406C
:10038000104347D0270DC7F30A00C3F30A51029068
:10039000401A019040286BDAC3F3130040F4801B2D
:1003A0000098924620B10023D2EB030A63EB0B0BBB
:1003B00001985946C0F140025046FFF7AAFF064691
:1003C0000D4650465946019A00F08CF910EB080092
:1003D0006141002487EA115284EAE7731A4340D04E
:1003E000009A62B3019A012A4FEA075215DC001BFA
:1003F00061EB02014FF0004202EA0752CDE90042F0
:10040000001C41F5801132462B4600F08CF903B0F8
:10041000BDE8F08F40462146F9E7001B61EB020181
:10042000001C41F5801300185B412018A2F500174D
:1004300047EB030140EAD570B6196D4111E06D0834
:100440004FEA360645EAC0754FEA0752001B61EBDA
:100450000201001C41F5801149084FEA30000019E3
:10046000514132462B4603B0BDE8F04F00F04CB985
:100470000098012240000023D0EB020263EBE073FE
:10048000009821464FEAE074B8EB000061EB0401EC
:10049000E9E783F000435BE781F0004158E72DE98D
:1004A000FE4F81EA030404F0004421F0004100946F
:1004B0004FF0000B23F0004350EA01045ED052EAF3
:1004C00003045BD0C3F30A54C1F30A552C44A4F2CD
:1004D000F3340194A0FB0254C1F3130141F48011E1
:1004E000C3F3130343F4801301FB024400FB034EE8
:1004F000840A970A44EA815447EA8357A4FB0768B1
:1005000002958D0A05FB07854FEA932C04FB0C54DA
:100510002705029D4FEA065847EA1637B5EB08054E
:100520006EEB070C870E920E47EA811742EA8312A0
:10053000A7FB0201B6EB0B0164EB00042B0D43EAB1
:100540000C335E1844EB1C50DA465146E7FB0201BF
:10055000C5F313044FEA0B3343EA14534FEA043252
:10056000019C43EA0603A4F10C040294009CCDE92B
:1005700000B400F0D8F803B0BDE8F08F00200146C9
:10058000F9E72DE9F04D81EA030404F0004B21F076
:10059000004514464FF0000A23F0004150EA0502DE
:1005A00020D054EA01021DD0C5F30A570246C5F314
:1005B0001303C1F31300C1F30A5640F4801543F44A
:1005C0008013A7EB0608101BD64608F2FD3873EB24
:1005D000050002D308F1010801E092185B41B8F16F
:1005E000000F03DA00200146BDE8F08D00204FF433
:1005F0008011064684460EE0171B73EB050705D3F2
:10060000121B63EB050306434CEA010C49084FEA51
:10061000300092185B4150EA0107EDD152EA030025
:1006200012D082EA040083EA0501084305D0101BBA
:10063000AB4106D20122002306E000224FF0004326
:1006400002E06FF0010253101AEB06004CEB085168
:1006500010EB0A0041EB0B01BDE8F04D00F054B87F
:10066000C1F30A52C1F3130140F2FF3341F4801188
:100670009A4202DA00200146704740F233439A4220
:10068000A2F2334202DC5242FFF752BEFFF741BEF4
:1006900030B5041E71F1000404DB4FF00044404209
:1006A00064EB0101141E73F1000405DB1C464FF0DE
:1006B0000043524263EB0403994208BF904230BDAD
:1006C000064C074D06E0E06840F0010394E807009F
:1006D00098471034AC42F6D3FFF75AFDA4F1000856
:1006E000C4F10008202A06DBCB17203A41FA02F0B9
:1006F00043EAE07306E041FA02F3D040C2F120027F
:10070000914008431946704710B5141E73F1000458
:1007100008DA401C41F1000192185B411A4301D1F3
:1007200020F0010010BD2DE9F04D92469B4611B11D
:10073000B1FA81F202E0B0FA80F220329046FFF77F
:10074000E8FD04460F4640EA0A0041EA0B01534621
:100750005A46084313D0114653EA010019D0C8F194
:1007600040025046FFF7E4FD05460E465046594606
:100770004246FFF7CEFD084305D0012004E02046A5
:100780003946BDE8F08D0020054346EAE0762C436B
:1007900037430A986305E40AA0EB08000022FD0A2B
:1007A00044EA47540A3002D500200146E9E7010532
:1007B00010196941DDE9084500196941BDE8F04DAE
:1007C000A2E730B58C1810F8012B12F00F0301D1FD
:1007D00010F8013B120906D110F8012B03E010F8C4
:1007E000015B01F8015B5B1EF9D101E001F8013BFF
:1007F000521EFBD1A142E6D3002030BD464910B5C0
:100800004A6822F440324A604A6843681A434A60A0
:1008100001684A6822F480724A6001684A68036984
:1008200042EA03224A6001684A6822F040724A6044
:1008300001684A6883681A434A6001688A6822F43A
:1008400000628A6001688A68C3681A438A60816AA4
:100850006FF07062D14201688A6822F070628A602B
:1008600001688A680CD0836A1A438A6001688A68C2
:1008700022F040528A6001688A68C36A1A4301E024
:1008800022F040528A6001688A6822F002028A607F
:1008900001688A68037E42EA43028A6090F8201069
:1008A000002901684A680FD042F400624A6001687A
:1008B0004A6822F460424A6001684A68174C436AF9
:1008C00004EB43331A4301E022F400624A600168FA
:1008D000CA6A22F47002CA620168CA6A838B104C29
:1008E00004EB03531A43CA6201688A6822F4007257
:1008F0008A6001688A6890F8303042EA43228A6050
:1009000001688A6822F480628A6001688A684069A6
:1009100042EA8020886010BD0023014000E0FFFF14
:100920000000F0FF00F06AB8092818D2DFE800F0F4
:100930000507090B0D0F111315000AA070470BA036
:1009400070470DA070470FA0704711A0704713A00B
:10095000704715A0704717A0704719A070471CA0DA
:10096000704700004E4F4E450000000044424720B3
:10097000494E4954000000004B455920494E495406
:10098000000000004F4C454420494E4954000000EF
:100990004D454E5520494E49540000005441534B9B
:1009A00020494E49540000005441534B20535441B8
:1009B000525400005441534B2052554E0000000049
:1009C00053544F502054494D454F5554000000009A
:1009D000554E4B4E4F574E0010B500280AD0064CCE
:1009E0002278002A06D1012222706070616003F033
:1009F00085FCA06010BD0000501C002003480021B1
:100A0000017041704160816070470000501C0020FF
:100A1000401A904201D3012070470020704700F037
:100A2000D5B90000064910B5097831B128B11822AE
:100A30000349FFF727FC012010BD002010BD000076
:100A40005C1C002070B50C4C0025022025706570E0
:100A5000A070E570656003F051FCC4E902052561F2
:100A6000656100F0D7F910B10120207070BD00F071
:100A70004DF9002070BD00005C1C00200348407848
:100A8000052801D000207047012070475C1C002021
:100A900003484078042801D00020704701207047A7
:100AA0005C1C002004484078012803D0022801D0B3
:100AB00000207047012070475C1C002070B5134C6B
:100AC00005462078002807D06078032805D0012843
:100AD00005D0022803D0002070BD012070BD03F0B6
:100AE0000DFC0646A07800F019FA28B1E5703146F1
:100AF000032000F021F8F0E700F008F900F060F9B9
:100B000060613146052000F017F8E4E75C1C002026
:100B100070B500F04DFA074C002502206570A070FA
:100B2000E570656003F0EAFBC4E9020525616561D3
:100B300070BD00005C1C0020014A5070916070473D
:100B40005C1C002070B5154C06460D46207818B187
:100B5000607818B1042801D0002070BD00F028FA98
:100B60002946304600F030FA60B1A6700020E070EF
:100B7000E06020616560606129460120FFF7DCFFCD
:100B8000012070BD00F0C2F800F01AF9606103F0B6
:100B9000B5FB01460520FFF7CFFFDDE75C1C002019
:100BA000062810D2DFE800F0030507090B0D07A0A7
:100BB000704708A070470AA070470BA070470DA0AF
:100BC00070470FA0704710A07047000049444C4583
:100BD000000000005354415254494E4700000000A9
:100BE00052554E4E494E470053544F5050494E4770
:100BF0000000000046494E495348454400000000AB
:100C00004641554C54000000554E4B4E4F574E0038
:100C1000F8B53D4C2078002861D000F06FF903F062
:100C20006DFB05462069401C20616078012806D0D4
:100C3000022804D0032805D1E178022902D0616896
:100C4000691AE1600326052840D2DFE800F03F037F
:100C50000C2B560014222846A168FFF7D9FEA8B332
:100C60002946022030E0A078294600F0EFF901285B
:100C700002D002280FD029E00220E070A07800F016
:100C80004DF910B1294603201EE000F03FF800F0B6
:100C900097F8606103E0E67000F092F829E02946D9
:100CA000052011E0A078294600F0D0F90228F2D002
:100CB000A07800F0E1F898B164222846A168FFF717
:100CC000A7FE68B129460420FFF736FFA0786A46E0
:100CD000294600F04BF8002801D00098E060F8BDEC
:100CE00040F2DC522846A168FFF792FE0028EDD0C2
:100CF0000120606100F00AF8D1E7284600F0E8F82A
:100D00000028C8D0E2E700005C1C0020164910B59E
:100D10000020487008F072FB08F070FF09F0A2F89C
:100D20000AF076F90AF0F6FC06F012F808B106F0BF
:100D30004FF901F087F902F0ADF820B102F0D0F9D7
:100D4000002001F0BBFF01F097F818B901F06EF830
:100D5000002807D040F2726001F094F8BDE810401E
:100D600001F048B810BD0000440200200B461349B2
:100D700030B40C7854B18978884207D1032808D060
:100D800004280BD005280ED0062811D030BC002036
:100D9000704730BC1146184608F042BF30BC1146BF
:100DA000184609F073B830BC114618460AF040B92D
:100DB00030BC114618460AF0BDBC000044020020B9
:100DC0000148406870470000440200200B488078CA
:100DD000022809D0032809D0042809D0052809D001
:100DE000062809D006A0704708F01ABB08F02CBFEF
:100DF00009F068B80AF038B90AF0B8BC440200201B
:100E00005441534B20554E535550504F5254454426
:100E10000000000010B5174C002002212070607007
:100E2000A170606001F010F988B108F04DFB80B14D
:100E300008F04EFF80B109F0A9F880B10AF07CF902
:100E400080B10AF027FD80B10120207010BD1E2066
:100E50000DE008F0DFFA0AE008F0F0FE07E009F024
:100E60002BF804E00AF0FAF801E00AF079FC60607F
:100E7000002010BD4402002010B5144C217811B19F
:100E8000A178884201D0002010BD022808D0032894
:100E900009D004280AD005280BD006280CD010E071
:100EA00008F034FB0AE008F021FF07E009F092F8AF
:100EB00004E00AF065F901E00AF010FD08B1002035
:100EC0006070607880F0010010BD000044020020D6
:100ED00010B5094C217819B1A178032902D004E09A
:100EE000002010BD08F00EFF08B1012010BD08F071
:100EF000A5FE6060F4E7000044020020064810B53B
:100F00000078002807D006F01BFA002803D0BDE8BF
:100F1000104006F043BA10BD4402002010B5234C27
:100F2000217811B1A178884201D0002010BD02289B
:100F30000AD0032811D0042818D005281FD006286D
:100F400026D064306060F0E708F0F0FA10B108F0E5
:100F5000DDFA22E008F05EFAF4E708F0E3FE10B1F3
:100F600008F0C4FE19E008F069FEEBE709F042F86A
:100F700010B109F02FF810E008F09EFFE2E70AF048
:100F80000FF910B10AF0FCF807E00AF067F8D9E7AA
:100F90000AF0B4FC30B10AF0A1FC08B10020607086
:100FA000012010BD0AF0DCFBCCE700004402002069
:100FB00010B5FFF7ABFE03480221817000214160AC
:100FC00010BD00004402002010B51F4C227872B101
:100FD0000022A070626002280BD0032811D00428E0
:100FE00018D005281ED0062824D064306060002068
:100FF00010BD084608F0C2FA607000BB08F00AFA9B
:1010000006E0084608F0A0FE6070C0B908F016FEC1
:10101000606014E0084609F019F8607078B908F0CB
:101020004BFFF5E708460AF0EDF8607038B90AF0B2
:1010300015F8EDE708460AF09BFC607008B160788F
:1010400010BD0AF08DFBE3E74402002070B5374C79
:101050000D46217889B3A178884232D1617859B19F
:10106000022830D0032838D004283ED0052846D0A6
:1010700006284ED0643057E0022808D0032809D053
:10108000042812D0052815D0062817D019E008F03A
:101090003DFA0CE008F02AFE78B1284608F032FE4E
:1010A00030B900BF08F0CAFD3EE008F093FF20B160
:1010B000012070BD0AF064F8F9E702E00AF00EFCC6
:1010C000F5E7022070BD284608F0FAFA0128F9D0A9
:1010D000022825D108F09EF926E0284608F072FE85
:1010E0000128EFD00228DDD01AE0284609F014F8D4
:1010F0000128E7D0022813D108F0DEFE14E02846CC
:101100000AF0EEF80128DDD0022809D109F0A6FF87
:101110000AE028460AF09EFC0128D3D0022801D01C
:10112000002070BD0AF01CFB6060CAE7440200208A
:101130002DE9F0411D4C0646207A002834D01C4F82
:10114000BE4202D01B4886422ED1304604F01AFC23
:10115000EFF3108572B63846002786420FD1E0784B
:1011600058B1A07848B1607802F0AEFA6070A0780B
:10117000401EA070E068401CE060E7700EE0E0797F
:1011800058B1A07948B1607902F09EFA6071A079F7
:10119000401EA071E068401CE060E77105B962B6CE
:1011A000BDE8F04100F03CB8BDE8F081140000203B
:1011B000241700206C170020EFF3108272B6002174
:1011C0001248017041708170C1700171417181716B
:1011D000C171C1600161017202B962B60C490D4B67
:1011E0000A689A4206D1896B21B10B490B4A0968FA
:1011F000914201D000207047EFF3108172B60122B6
:10120000027201B962B6012070470000140000208C
:1012100024170020001001406C17002000440040FB
:101220002DE9F0412D4C00210A46207A0E460D464C
:10123000002850D0EFF3108072B6E77801239FB9F1
:10124000A7788FB1E3706178677801EB011202EB48
:101250008111234A02EB410107EB071C0CEB8717B6
:1012600002EB4702B2F8A020E7799FB9A7798FB1C6
:10127000E371637903EB031505EB8315194B03EB5E
:101280004506657905EB051707EB851503EB450367
:10129000B3F8A05000B962B6002751B14AB1124864
:1012A00004F006FE28B1EFF3108072B6E77000B9C3
:1012B00062B6002E0FD0002D0DD02A4631460B48C5
:1012C00004F038FE002806D0EFF3108072B6E77104
:1012D000002800D162B6BDE8F081000014000020B3
:1012E0006003002070080020241700206C170020E5
:1012F00070B5194C217A002927D0EFF3108572B60A
:101300001649002688420CD1E07840B1A07830B16F
:10131000607802F0D9F96070A078401EA070E67085
:101320000EE00F4988420DD1E07940B1A07930B18B
:10133000607902F0C9F96071A079401EA071E67170
:1013400025B104E0002D00D162B670BD62B6BDE8E3
:101350007040FFF765BF0000140000202417002034
:101360006C1700202DE9F047294C8146207A404235
:1013700010EA090F15D0A1B1A02903D9A02602F0C7
:1013800095F900E08EB2EFF3108572B6A0780828C8
:1013900002D2A079082807D3E068401CE06005B9B4
:1013A00062B60020BDE8F087207894F8048000EB56
:1013B000001101EB80111748324600EB410007464F
:1013C0004946FEF75FFF08EB081000EB8811124852
:1013D000A7F8A06000EB4100074632464946FEF7F9
:1013E00051FFA7F8A060207802F06EF92070A07875
:1013F000401CA070207902F067F92071A079401C90
:10140000A07105B962B6FFF70BFF0120CAE7000023
:101410001400002060030020700800200FB4194859
:1014200010B5007AA8B040422A9A4FF0FF3410421B
:101430001FD02BABA02168460CF0CCFB002818DB9A
:10144000A02810D32E208DF89A008DF89B008DF8DF
:101450009C000D208DF89D000A209F248DF89E0091
:1014600002F024F900E0044621466846FFF77AFFBF
:1014700020B1204628B010BC5DF814FB6FF00100CD
:10148000F8E70000140000202DE9F0411E4F1F4E28
:1014900000243C701E493068884218D11D4D1E4AF8
:1014A0002968914213D1716889B9696879B9F2687C
:1014B0004FF6FF718A420AD1EA688A4207D1446234
:1014C000286844623C21304603F096FF10B10020AA
:1014D000BDE8F0813C210F4803F08EFF20B13C2194
:1014E0000A4803F0D0FFF2E730684462286844629B
:1014F0007C80BC80BC6014210848FC60FEF7DBFEE9
:101500007C7001203870E3E70400002004160020FE
:10151000000400404C160020000800404C0300204E
:1015200070B50A4D287800280FD0094800240068BB
:1015300044620848006844626C80AC80AC6014214E
:101540000548EC60FEF7B7FE6C7070BD040000202B
:10155000041600204C1600204C0300202DE9F04119
:10156000194C07462078404238402BD00122A11C5C
:10157000164802F0FCF905460022211D144802F02D
:10158000F6F906462946A06802F0DAF9A06031466D
:10159000E06802F0D5F90146E06028460D4D28804C
:1015A0006E80A068C5E90101E868401CE86002F0AF
:1015B000A5FE286101206070142229463846FEF7F6
:1015C00061FE0120BDE8F081040000200416002027
:1015D0004C1600204C03002010B502F08FFE04468C
:1015E000034601220749084805F0ACF9064823469E
:1015F00010220649143005F0A5F9054901200870AC
:1016000010BD000000000240800E002000100240CB
:10161000840000202DE9F0411848007800282BD0E4
:1016200002F06CFE164F0646002500BF05EB850054
:1016300007EB8004A188206802F056FE012800D044
:101640000020A179814202D0A071E66010E0E1792A
:1016500081420DD0E168711A1E2909D3E07138B1B9
:10166000207AFF2801D2401C20722069401C206192
:101670006D1CEDB2022DD9D3BDE8F08184000020AD
:10168000800E00200849097861B102280AD200EBD7
:101690008001064800EB8100017A19B1491E0172F0
:1016A000012070470020704784000020800E002039
:1016B00000280DD0074A0168914209D1416C0648C3
:1016C0008163016B491C0163082181710121017152
:1016D00070470000004C00402C00002010B50400B2
:1016E00020D0EFF3108172B61348427A2270C2689C
:1016F00062600269A260426AE260826A2261C26A32
:101700006261026BA261426BE261826B226282794A
:1017100084F82420027884F82520407884F8260074
:1017200011B102E0002010BD62B600F029F884F883
:101730002700012010BD00002C00002070B502F031
:10174000DDFD05460B480C490068884201D00020A9
:1017500070BD084804F063F8EFF3108472B62846B1
:1017600005F0B8FE05490120087004B962B60120F1
:1017700070BD0000DC160020004C00402C00002052
:101780000A4910B5087800280DD0EFF3108072B622
:101790000C69C96800B962B631B102F0AFFD001B37
:1017A000142801D8012010BD002010BD2C000020FD
:1017B00001480078704700002C00002070B5364CBE
:1017C000207800282FD002F099FD054605F060FE34
:1017D000607900210426062825D2DFE800F02403E2
:1017E0000F19252F64222846616905F049FE00285B
:1017F00019D02846BDE8704005F088BEA0780028C2
:1018000011D0A1700120607003206071A56140E0DB
:1018100005222846A16905F033FE002803D0667131
:10182000A5612562A67170BD206A281AC017401CE8
:10183000F9D02846BDE8704005F088BEE078B0B128
:10184000EFF3108072B6E170217A6172E168491C91
:10185000E160A16A2561491CA1620621A17166713E
:10186000E169491D21620028DDD162B670BD042204
:101870002846E16905F004FE0028F7D0074804F087
:1018800037F8E06A401CE0626671E069401D206242
:101890000720A07170BD00002C000020DC16002085
:1018A000002809D000680549884205D104484179DB
:1018B000052901D10121C17070470000004C004092
:1018C0002C00002010B50B4C2078002810D00A48BE
:1018D00003F0A5FFEFF3108072B600212170617054
:1018E000A170E17021716171A171002800D162B60F
:1018F00010BD00002C000020DC160020002806D0BF
:1019000000680349884202D102490120887070476B
:10191000004C00402C000020064810B5007800283C
:1019200007D0002006F09EFCBDE81040012006F024
:1019300099BC10BD0000002070B50D4C0546207804
:10194000002814D0002006F08DFC012006F08AFC4F
:1019500008482DB10122082102F0CBFC012004E04F
:101960000022082102F0C5FC00206070012070BD3B
:10197000000000200010024010B5144C0020024668
:10198000207060700821124802F0B3FC002006F0BD
:1019900069FC012006F066FC00210E4803F09CFE65
:1019A00008B1002010BD04210A4803F095FE20B1C3
:1019B0000021084803F0F4FEF3E7002006F052FC93
:1019C000012006F04FFC0120207010BD0000002017
:1019D0000010024094160020024908784978084017
:1019E000704700000000002010B50C460246FFF7CB
:1019F000F3FF002808D01146002006F0FDFB214629
:101A0000012006F0F9FB012010BD000010B54FF4D5
:101A100080610648FEF74FFC0548FF210170817A7E
:101A2000FF2901D00121417110BD0000A80E002046
:101A30008800002070B50D460446082918D27A2C7B
:101A400016D8104606F0E4FC0A490246002001EBD5
:101A5000C511135C2618401CC0B28B550528F8D35D
:101A60002144002048712846BDE8704006F062BD60
:101A700070BD0000A80E002070B514000E4605468B
:101A80000CD006E031462846FFF7D4FFAD1DEDB27D
:101A9000641C2278002A01D07A2DF3D970BDFEB5DE
:101AA000054600240F460A206E46B2FBF0F100FB0B
:101AB0001121B2FBF0F230313155641CE4B25AB15D
:101AC0000A2CF2D308E0641EE4B23946325D28469F
:101AD000FFF7B0FFAD1DEDB2002C01D07A2DF2D989
:101AE000FEBD0000002808D0044A0168914204D1DC
:101AF000016C0348C1600121C1717047005400406E
:101B0000880000202DE9F04F9946DDF824B01746F3
:101B100088460646802826D2B8F1400F23D2F01915
:101B2000802802D9C6F18000C7B208EB090040281E
:101B300003D9C8F1400000F0FF09002511E000249E
:101B400008EB050A09E000BF30190AF0FF01C0B236
:101B50005A4600F009F9641CE4B2BC42F4D36D1C8F
:101B6000EDB24D45EBD3BDE8F08F00002DE9F0411B
:101B700002F0C4FB07461A481A4A0168914203D191
:101B800040681949884202D00020BDE8F081EFF397
:101B9000108672B64FF480611448FEF78CFB144C2B
:101BA000FF202070012060700025A570E570257170
:101BB0006571A571E571E5602072657206F030FD12
:101BC0002761C4E90575C4E907576562A562E56246
:101BD00025636563A563E56306B962B60120D4E7B2
:101BE000CC14002000540040801A0600A80E0020EB
:101BF0008800002002494878897808407047000032
:101C0000880000202DE9F041534C607800287CD0FA
:101C100002F074FB0546EFF3108072B6E279A37907
:101C2000E168002702B1E77100B962B6A2BBE078B3
:101C300078B11BB1284606F029FC0AE01422284698
:101C4000616906F0DEFB00285FD00321284606F01C
:101C500053FC207A414E01280ED002287AD0032866
:101C60001BD0042876D1A069281AC017401C71D057
:101C7000206B401C206306E064222846216906F0A0
:101C8000C0FB002866D006F06DFC20B12846BDE8F8
:101C9000F04106F0CFBC316C09E0A07830B1607A39
:101CA0002F4E032808D02078E8B127E000212846ED
:101CB000BDE8F04106F020BCE07AC0F18001C9B275
:101CC000202900D920210F46402131702549A27AD0
:101CD00001EBC21101443A46701CFEF7D3FA04220C
:101CE0002B46791C31E04FF47A722846216A06F0BF
:101CF00088FB18B1002006F01DFC2562A07AFF28A1
:101D000013D100200123217800E023E003FA00F240
:101D10000A4203D0A072E772677103E0401CC0B2B0
:101D20000828F1D3A07AFF2814D0C0B2377040F051
:101D3000B0007070E07A102141EA1011B17000F02B
:101D40000F0002222B46F0700421BDE8F041044848
:101D500006F08CBCBDE8F08188000020CC14002087
:101D6000A8120020A80E002030B5802817D24029E4
:101D700015D2CD080A4BCC0803EBC41301F00704BD
:101D8000012101FA04F4002A1A5C01D0224300E088
:101D9000A2431A540348A94002781143017030BD90
:101DA000A80E002088000020002806D00068034903
:101DB000884202D1024901208871704700540040D6
:101DC0008800002010B5094C207800280DD0084963
:101DD00040F2DC50608009684863607818B10021E7
:101DE000034803F0DDFC0020607010BD28000020D7
:101DF0007415002010B50B4C2078002802D06078B4
:101E000008B1012010BD08496088096848630021B5
:101E1000054803F061FC08B1002010BD012060708E
:101E2000EFE70000280000207415002070B50F4D6A
:101E300000200F4C2870687040F2DC566E800D490F
:101E40002068884207D16068A72804D1E068A0F51F
:101E50009C411F3901D0002070BD0021044803F0CF
:101E60009FFC206846630120287070BD2800002078
:101E70007415002000000140014800787047000000
:101E80002800002010B5074C217849B106F077FEF4
:101E90006080617811B1044909684863012010BD70
:101EA000002010BD280000207415002009494A7840
:101EB000524202420CD0084B02689A4208D1406C50
:101EC00088610869401C0861002088700120C87082
:101ED00070470000680000200014014030B5002861
:101EE0001ED0EFF3108272B60E498C88CB888D68B5
:101EF0000560CD6845600D6985604D69C5608D6977
:101F000005614D7885758978C17502B962B69C42C4
:101F100001D3E11A02E0C3F58071214481820120DE
:101F200030BD00006800002070B50F480F49006800
:101F3000884201D0002070BD0B4803F070FC0C4DAE
:101F40000024AC80EC80AC60EC602C616C61AC6116
:101F5000AC70EC70012068700BF074FB08B10120CC
:101F600070BD6C70E6E70000B4170020001401405B
:101F70006800002030B109494A781AB1CA888B88B4
:101F80009A4201D100207047CA88054B9B5C0370C0
:101F9000521CD0B2C88001207047000068000020A9
:101FA000800D0020084810B5417800290BD0C17879
:101FB000002908D00021C170044803F099FCBDE855
:101FC00010400BF03FBB10BD68000020B41700208C
:101FD000114930B44A78524202421AD000680F4A7E
:101FE000904216D18888CA88401CC0B2904203D162
:101FF000C868401CC86007E00A78094B8C881A55ED
:1020000088808868401C88600020887030BC0BF095
:1020100019BB30BC7047000068000020001401406C
:10202000800D002005484178002906D0002141702C
:102030008170C170024803F05BBC704768000020EB
:10204000B417002000F018B810B520210848FEF79A
:1020500032F907485C212030FEF72DF904480121B0
:10206000203000220170C27102480170084610BD84
:10207000981C00205002002010B500F00BF80BF067
:1020800057FB0348002141708170C170C17110BDC0
:10209000B81C002010B5074C207828B140F2A4608D
:1020A000FFF7F0FEFFF78EFE002020706070E070FA
:1020B00010BD00001C1C0020002800DA40427047C0
:1020C000884201DA084670479042FCDD10467047AE
:1020D00010B54FF4FA6240F21451FFF7F1FF80B2ED
:1020E00010BD00002DE9F047534C8A468146216F10
:1020F000606B884200DA2067E16C002901DA48420F
:1021000000E00846A66C002E01DA774200E0374670
:10211000626C002A01DA534200E01346BB4200DD44
:102120001646002E01DA724200E032460025022AED
:1021300018DDC2EBC20040F21D1278217830FFF7A3
:10214000BFFF002E03DA3DA100F2726003E0A0F2AF
:1021500072603FA1404200F021FBA565E565256660
:10216000BDE8F087E26B002A00DA524240F2726862
:102170000A2A2ADC3BA1404600F0FEFAE565256606
:10218000B9F1000FECD0022FEADC606C002800DA15
:1021900040420228E4DC0120A065E06B1E224000E2
:1021A0005142FFF78DFFA0665146052000F052FA1C
:1021B000A06E30A100F2726000F0F0FA5246BDE865
:1021C000F04730A1012000F089BAA565002901DDA2
:1021D000012601E04FF0FF36216E29B1491E21662C
:1021E000606EC0EB00101BE000EB400000EBD07015
:1021F00040108C223C21FFF763FF704329A100F2BD
:10220000726000F0CBFA012F13DCE06D401CE0653A
:102210000528A5D303206666C4E91750C6EB06104F
:1022200000EB400108EB8100BDE8F04721A100F080
:10223000B5BAE56594E70000C8000020434150545A
:102240005552455F4252414B455F52494748540001
:10225000434150545552455F4252414B455F4C45B6
:102260004654000046494E414C5F57494E444F5733
:102270000000000046494E414C5F484F4C445F42CD
:102280004941530046495253545F53544F505F578E
:102290004954485F414E54495F44524946545F484F
:1022A0004F4C4400534554544C455F434F525245A4
:1022B00043540000534554544C455F4B49434B0035
:1022C00070B5314C0026606CFFF7F6FE0546A06C39
:1022D000FFF7F2FE854201DD656C00E0A56C012D83
:1022E00002DDA06EC01E10E0B5F1FF3F02DAA06E65
:1022F000C01C0AE0E06B10F1050F02DAA06E401E70
:1023000003E0052802DDA06E401CA0665A2251425F
:10231000A06EFFF7D5FEA066E06B002801DA41420F
:1023200000E00146052906DD242200EB4000514271
:10233000FFF7C6FE0646002D01DA684200E0284697
:10234000012801DC002005E0E80030224042514233
:10235000FFF7B6FEA16E6E22314408445142FFF7EA
:10236000AFFE628900F27260831A08A1122B02DDAF
:1023700002F1120004E013F1120F01DAA2F11200CF
:10238000BDE8704000F00ABAC800002046494E4936
:10239000534845445F414E54495F445249465400B6
:1023A00070B5204A536B116F8B4200DA1367D56CFE
:1023B000A3F2BF14002D00DA6D422B2D02DDB3F520
:1023C000E07F05DABDE870400146042000F042B924
:1023D000916C022903DD14A140F28C501EE01148DB
:1023E000806C4042002900DA01464FF0460202EBC1
:1023F000810110DA8C420EDC00EB80004FF4877212
:1024000069216930FFF75CFEBDE870400AA100F267
:10241000726000F0C3B90DA140F20E60BDE87040DB
:1024200000F0AAB9C80000205455524E5F484152EE
:10243000445F4252414B45004E4547355F5052453F
:10244000444943545F4252414B4500004C45465479
:102450005F4352554953450070B51E4C0546626BAB
:10246000E06E824200DDE266A2F2653250421E2832
:102470000BDC284600F028F9E0612946022000F034
:10248000E9F815A140F28C501FE0A16C002902DA96
:10249000C1F1000200E00A464FF0260303EB82027E
:1024A00010DD90420EDC01EB8100FA225A215A30F5
:1024B000FFF706FEBDE87040A0F272600AA140423C
:1024C00000F06CB90BA140F2D660BDE8704000F09E
:1024D00053B90000C80000205455524E5F48415285
:1024E000445F4252414B4500504F53355F42524189
:1024F0004B45000052494748545F435255495345A4
:102500000000000070B5144C0546E16E606B884217
:1025100000DDE06611A140F28C5000F02DF9A06CB6
:10252000002805DC606D401C6065022807D201E0D0
:1025300000206065A069281AB0F5E17F0AD329461A
:10254000032000F087F8BDE8704008A140F20E605B
:1025500000F012B970BD0000C80000205455524E62
:102560005F484152445F4252414B45004C454654FE
:102570005F4352554953450070B5204C0546E06C09
:10258000FFF79AFD20280FDCA06CFFF795FD0328CC
:102590000ADC1BA140F2726000F0EEF8206D401CD6
:1025A0002065032815D20FE0A06CE16CA0EB800041
:1025B000084464225142FFF783FD15A100F27260C6
:1025C00000F0ECF8002020652069281AB0F5967F0D
:1025D00012D3607928B90120656160710FA0FEF700
:1025E0001DFF2946012000F035F8BDE8704015A117
:1025F00040F2D66000F0C0B870BD0000C8000020F6
:1026000043454E5445525F52454144590000000035
:1026100043454E544552494E4700000042414C4C00
:102620005F42414C2C54494D45522C535441525415
:102630002C41543D4F5F4445504152545552450D35
:102640000A00000052494748545F435255495345D8
:10265000000000007CB51A4C05460E462071002093
:10266000A1616065012D1DD0022D21D0032D1FD049
:10267000042D1DD0052D1BD040F28D2020812089F6
:10268000616B401AE064284600F092F80146206928
:10269000A26C301ACDE9002022890A48636BFEF74C
:1026A000BDFE7CBD40F265302081606BE066E6E7F0
:1026B00040F2BF102081042DE1D100F053F8DEE795
:1026C000C80000205CE7000803494A7912B1496953
:1026D000401A704700207047C8000020F0B51B4C1E
:1026E000054689B0A0780E4600282CD10120A070A4
:1026F000E5701046FFF7E8FF03462062E06EA0F5A4
:102700004070653800D50020216FA1F2BF11494209
:1027100000D500216289A76C0DF1180C05978CE893
:102720000700D4E90E270DF1040C606BE16C8CE816
:102730008700E06900900DB105A100E006A13246D6
:102740000748FEF76BFE09B0F0BD0000C80000208E
:1027500050415353000000004641494C0000000026
:10276000A0E70008034800218165C1650166416654
:1027700070470000C800002070B50E46FFF7A8FCA7
:10278000054D04466889844204D02046FFF77AFB51
:1027900000B16C81EE6070BDC800002010B50C4621
:1027A000FFF796FC2146BDE81040FFF7E5BF0000AB
:1027B000062810D2DFE800F0030507090B0D07A07B
:1027C000704708A0704709A070470BA070470CA085
:1027D00070470EA0704710A0704700005741495441
:1027E0005F4F0000544F5F504F5335005455524EC9
:1027F0005F4252414B450000544F5F4E4547350004
:10280000534554544C455F4E4547350046494E4963
:10281000534845440000000054494D454F5554006D
:10282000FEE72DE9F0470D46040023D094F87B0025
:1028300000B3FDB1D4E915014218401A00EBD07085
:102840004FEA600802EBD272A16B206C4FEA62097A
:102850000A1802EBD272081A571000EBD07046101B
:1028600094F87900287094F87A00687094F87A00E7
:1028700018B106E00020BDE8F087606D08B9A06DD2
:1028800058B30020A870E06C05F050FF6860206D20
:1028900005F04CFFA860606D05F048FFE860A06D92
:1028A00005F044FF2861484605F040FF6861404656
:1028B00005F03CFFA861384605F038FFE861304676
:1028C00005F034FF2862606C05F030FF6862A06C90
:1028D00005F02CFFA8620120CDE70120D2E770B5FA
:1028E0000C46050027D034B32068002823DD60683B
:1028F000002820DDA06800281DDDE06800281ADD22
:102900002069002817DD6069002814DDA06900280F
:1029100011DDE06900280EDD206A00280BDD606A09
:10292000002808DDA06A002805DDE06A002802DB37
:10293000206B002801DA002070BD7C212846FDF7BD
:10294000BAFC342221462846FDF79CFC012085F87C
:102950007B00002085F87900012070BD70B50E461F
:10296000040006D094F87B0018B1022E03D0032E89
:1029700001D0002070BD94F87900032801D1022E07
:1029800012D0B04210D00025E5642565A566E56645
:1029900084F87850204605F0A0FE84F8796094F819
:1029A0007A0008B96565A565012070BD70B50400A1
:1029B00006D094F87B0018B1002901DD002A01DC63
:1029C000002070BD0025E5642565A566E566C4E9BF
:1029D0001C12012084F87800204605F07EFE0220BB
:1029E00084F8790094F87A0008B96565A565012036
:1029F00070BD30B58DB0040014D001463422684655
:102A0000FDF740FC94F87B507C212046FDF753FCF9
:102A1000342269462046FDF735FC84F87B500020BF
:102A200084F879000DB030BD2DE9F04190460400E6
:102A30002FD094F87B0060B3266808467242334674
:102A40001746C91705F064FE054633463A46404628
:102A50004FEAE87105F05CFE064655EA06001BD019
:102A6000284605F093FE0546304605F08FFEC4E982
:102A70001A500646E06A05F089FE616D814201DD6B
:102A8000002D04DB4242914212DA002D10DD0121BB
:102A90000FE00020BDE8F08194F87900022823D0EF
:102AA000032821D02046BDE8F0410221FFF756BFA0
:102AB0000021A26D824201DD002E04DB40428242F1
:102AC00003DA002E01DD012000E0002001430DD0DB
:102AD000C4E9135694F87900042805D0204605F07F
:102AE000FCFD042084F879000120D3E794F87900F4
:102AF000022804D0032802D0042800D018B90121EC
:102B0000204605F039FEC4E91356012084F8790007
:102B1000606DA84202D1A06DB04201D0012000E05A
:102B2000002084F87A00DFE72DE9F0411546040023
:102B300034D094F87B0080B326680846724233464E
:102B40001746C91705F0E4FD804633463A46284645
:102B5000E91705F0DDFD0546404605F017FE606506
:102B6000284605F013FEA065616DC4E91310C4E9A1
:102B70001A10E0630020C4E90D1020646064A064B2
:102B8000E0652066606658EA050100D0012104F87E
:102B9000791F60700120BDE8F081FFE70020FAE7AF
:102BA00010B5A0B190F87B208AB181B190F879205E
:102BB000012A0ED0022A0FD0032A0DD0042A0BD0EE
:102BC00000214165816580F87A10012010BD002048
:102BD00010BD05F0EFFEF8E705F05CFFF5E7002813
:102BE00003DAB0F1004F01D0404270476FF000406F
:102BF0007047C217401842EBE1726FF000434FF08C
:102C000000011B1A914102DA6FF0004070474FF04B
:102C10000041411A72F1FF31F8DA4FF0004070477D
:102C200040F60A6300221B1A8A4102DA40F60A6063
:102C30007047034A821A71F1FF31F9DA0048704790
:102C4000F6F1FFFF884201DA084670479042FCDD4A
:102C5000104670470349044A80FB0101002300F03D
:102C600005B80000AC1D0300606616002DE9F041B8
:102C70000C4607460021154608461E46491BB04132
:102C80004FF0000017DA381A74F100004FF002021A
:102C90004FF000032846314604DBFDF7C2FAC019A5
:102CA000614104E0FDF7BDFA381A64EB01012A46E0
:102CB0003346FDF7B6FABDE8F08100002DE9F0419A
:102CC000194E317829B3194C002720B3FEF728FCA0
:102CD000B0212046FDF7EFFA01252570A570A571FA
:102CE00000F06EF9A4F5B8700AF0D5FDA4F5867071
:102CF0000AF0D1FD0120FEF71FFE002807D0B770B3
:102D0000E77101F0FBFAB060757065700120BDE8F5
:102D1000F0810020FBE700F0E3F90020FEF70CFE55
:102D200077706770F2E7000008020020741A002034
:102D3000064910B509784942014201D1002010BD71
:102D4000B0220349FDF79EFA012010BD08020020C1
:102D5000741A0020F0B5484D99B000242C706C70A6
:102D6000AC70B0214548FDF7A6FA44487C21A8384C
:102D7000FDF7A1FA41482C212C38FDF79CFA00F010
:102D8000BFFC002875D000F049FDFEF7F5FD0028D6
:102D90006FD0FEF779FB00286BD00DAB4FF40070BD
:102DA000082140F2A93283E807007C22ADF84020D8
:102DB00041F2883672100523ADF84420ADF8483052
:102DC0000427ADF84260ADF846408DF84A70CDE971
:102DD000130140F2BA301590B720ADF85800ADF8A5
:102DE0005C20ADF86030ADF85A60ADF85E408DF80B
:102DF00062700DA922480AF00CFD002839D0204845
:102E000013A964300AF005FD002832D04FF4FA709F
:102E10000090DC2001904FF4AF70029040F24C40E3
:102E200003904FF4E16004904FF47A70CDE9050609
:102E30004FF41670079040F6B83008904FF4617068
:102E4000099041F270700A9002200B9014200C90AF
:102E50000A486946A838FFF742FD002809D000F06B
:102E6000AFF801F04BFAA8600449012028700870FF
:102E7000887119B0F0BD000008020020741A00200B
:102E8000041900200249087849780840704700007A
:102E90000802002001480078704700000802002066
:102EA0000548017821B1054980788979014301D02D
:102EB000012070470020704708020020741A00208B
:102EC00070B50B4CE07880B10A4DA5F1A800D5E9AA
:102ED0000712FFF729FE002808D00020E070E0600C
:102EE000206160612872E8642865012070BD0000DF
:102EF00008020020741A00200349044A80FB0101E3
:102F00000023FFF7B3BE000060661600AC1D03008F
:102F100070B5144C05462078002804D0022D03D04B
:102F2000A07820B1002070BD00F0DAF816E0FFF7BD
:102F3000C7FF0028F7D0012D12D002210A48FFF761
:102F40000DFD0028EFD008490020A831C8600861B5
:102F500048618861C86208638871A080012070BDE3
:102F60000321EBE708020020CC19002070B5124CB9
:102F70000D4606462078A178884303D0002E01DD57
:102F8000002D01DC002070BDFFF79AFF0028FAD069
:102F90002A4631460948FFF709FD0028F3D00749C2
:102FA0000020A831C860086148618861C862086370
:102FB0008871A080012070BD08020020CC1900207B
:102FC00010B51548FFF715FD13482C217C30FDF78F
:102FD00072F9124A10490020A831908048710123EB
:102FE0008B714872A1F89A00C860086148618861D5
:102FF000C861086248628862C8620863486388637F
:10300000C863086448648864D070D06010615061FF
:103010000872C864086510BDCC19002008020020A1
:103020002DE9F0472C4D0E462978AA78914319D006
:103030004FF4FA720021FFF705FEC0F5FA7204465C
:10304000904200DA0246002A00DA0022514230465D
:10305000FFF7F8FD0646E878DFF880904FF0010AA8
:1030600018B115E00020BDE8F087D9E907871B48B3
:103070003A464146A838FFF757FD0028F3D0A8EBA1
:10308000070000EBD07040102861686185F803A04C
:10309000124822461146A838FFF7C6FC0028E2D0A5
:1030A000A846EE604D46A019A71BC5E90307FFF728
:1030B00023FF68613846FFF71FFFA861C5E90B468B
:1030C00085F808A0EE64344303D00020A871A8F866
:1030D00004000120C7E7000008020020741A002045
:1030E00070B5154D2878002825D0FFF769FF134CDF
:1030F0000020A4F87400A4F87600A067E067C4F884
:103100008000C4F88400A4F88800A4F88A00E07065
:103110002071A4F5B8700AF0BEFBA4F586700AF021
:10312000BAFB0120A870E07105216172A071BDE8B1
:103130007040FEF7F1BB70BD08020020741A002039
:103140002DE9F04385B0FFF79DFE8D4FB978884398
:103150007ED001F0D3F80646B868351A052D18D38D
:10316000884C4FF00008192D14D96846FEF7F6F97F
:10317000FFF7B6FF84F80280A4F89850C4F8A06066
:1031800054F8A40F401C44F84809206C401C2064EB
:10319000BE60F3E06846BE60FEF7E0F900B3A8B297
:1031A0004FF4FA51A0FB010140F2E732801841F1DF
:1031B0000001521C0023FDF734F8001D41F100010D
:1031C00047F6FF7300221B1A8A4101DA47F6FF70A7
:1031D000BDF900C0BCF1000F05DACCF1000103E03D
:1031E000FFF77EFFCAE06146814201DC012200E078
:1031F0000022BDF90210002901DA4B4200E00B4623
:10320000834201DC012000E00020024202D1002ABA
:103210007ED0A1E0DDE90323604600F047FBA8B2C1
:1032200000F0B4F80028DBD0AAB2BDF9001056486F
:103230000AF070FB81465448AAB2BDF9021064300E
:103240000AF068FB804601464846FEF7CDFB00E0E9
:103250007AE00028C4D04C480AF0D3FA60624A48A9
:1032600064300AF0CEFAA06247480AF0C2FAE0657C
:10327000454864300AF0BDFA206643480AF0A9FACE
:1032800060664148503464300AF0A3FAA061606976
:10329000FFF7E0FC6060A069FFF7DCFCA0603A4843
:1032A0000AF07AFAE061384864300AF075FA206270
:1032B00035480AF079FAA084334864300AF074FA89
:1032C000E08431480AF08DFAA0622F4864300AF099
:1032D00088FAE0622C480AF070FA20632A486430C9
:1032E0000AF06BFA606328480AF0CCFA04F84D0C37
:1032F000254864300AF0C6FA04F84C0CA4F838905B
:10330000A4F83A80BDF90010A187BDF8020000E0E2
:103310001DE0E087206CFFF76CFC2064BDF9021013
:10332000606CFFF766FC6064A8B200F02DF9012024
:1033300004F84E0CA4F848502665E06C401CE0648C
:10334000B87804F8490C012005B0BDE8F083D4F842
:10335000A820521CC4F8A82020B9D4F8AC00401C06
:10336000C4F8AC0024F88CCF618004F88A8CFFF795
:10337000B7FEA58166612069401C20610020E3E75B
:1033800008020020741A0020041900202DE9F05FC3
:10339000834601467A48FFF703FC002863D078494A
:1033A00077487C31FFF73DFA00285CD07448DFF89D
:1033B000D4817C3000F12C09D0E9036598F8031022
:1033C00011B10178012950D04269C9F834208269CD
:1033D000C9F83820C269C9F83C20026AC9F84020FF
:1033E000426AC9F84420826AC9F84820427889F8BC
:1033F00005200078012806D0022804D0032802D036
:10340000042800D0002089F809003046FFF774FD39
:10341000C117FFF705FC07462846FFF76DFDC117EA
:10342000FFF7FEFB044656483946C8380AF053FAFF
:10343000002818D05248214664380AF04CFA002877
:1034400011D04846C0E90974C0E9076598F803201F
:1034500089F80820D8F80C20C9F84C20D8F81410A6
:103460000120C9F85010BDE8F09F701900EBD07032
:1034700040104FF4FA720021FFF7E4FB04465FEAC4
:103480000B004FF0000A30D041F27073A3FB0056DE
:10349000002202FB0B6003FB0A0140F2E730281810
:1034A00041F100014FF47A720023FCF7BAFE421E8C
:1034B00071F1000201DA012000216FF000430022C7
:1034C0001B1A8A4101DA6FF00040D8E90332002864
:1034D00017DDD9179D1A61EBE2714FEAE076471BC1
:1034E00076EB010703DA13180BE05046EDE70027EF
:1034F000D0F1000C67EB0607B5EB0C05B94100DA1B
:10350000131AC4F5FA721846C8F81030944200DA5B
:103510002246002A00DA00225142D8F81470FFF740
:1035200091FB2618251AC11BC8F814004FF47A70B5
:1035300081FB00015A460023FFF798FB104AC9F8A7
:103540003440D8F814307C320146C9F83830484647
:10355000D469C9F844A0C0E90F41C9F848A051781E
:1035600029B9D8E90321914201D18B4201D001212F
:1035700000E000214171012189F8091045E70000B0
:10358000CC1900200802002070B5164C0546606D6D
:10359000FFF725FB0F2806DCA06DFFF720FB0F28A7
:1035A00001DC012100E000210E482C38807818B1A0
:1035B000606A08B9A06A80B1002008400A4904D0B6
:1035C00088882844322800D93220888080B2A4F824
:1035D0009A00322803D3012002E00120EDE7002009
:1035E000A07170BD741A002008020020014800F08C
:1035F0005DBB00006C140020014800F057BB0000C8
:10360000FC17002001681823CAB2103AB2FBF3F28B
:10361000054B6FF30901032A9B5CC36500D9091DA3
:1036200081650846704700003EE6000810B5014677
:1036300000208B698A6A4FF0C07453B1B3F5005F04
:1036400015D072B1012A0CD0022A0AD0032A09D15E
:1036500004E01AB1012A06D0022A03D1C96AC901BD
:1036600000D5012010BDC96AA142FAD010BD002AC0
:10367000F7D0012AF2D0022AF3D0032AF3D010BDEA
:1036800030B50468256825F48025256004686360EA
:103690008368402B036803D099600068C26030BD26
:1036A0009A600068C16030BD70470000EFF3108081
:1036B00072B604490A69521C0A61002800D162B638
:1036C0007047000014000020401CC0B2082800D33E
:1036D00000207047002800DA40427047064910B5C4
:1036E00009784942014201D1002010BD70220349EE
:1036F000FCF7C8FD012010BD20020020281B00207F
:10370000034910B50120087000F088F8012010BDB1
:10371000200200202DE9F0473E4CD4E9020100F0E0
:10372000A1F8C4E90A01D4E9040100F09BF8C4E956
:103730000C01D4E9060100F095F807468946D4E962
:10374000080140F2BC5A52460023FCF739FD0E46F0
:1037500031490546A2FB010803FB01814FF0000C33
:1037600002FB0C1152466346FCF72AFD2A4A00234D
:10377000A5FB02C806FB028205FB032210EB0C0628
:1037800041EB0205022238464946FCF74AFDC4E9EE
:10379000100168084FEA3601C4E91410D4E90A019F
:1037A0004FF47A752A464FF00003FCF73AFD00F01B
:1037B00047F8A063D4E90C012A460023FCF731FD49
:1037C00000F03EF8E063D4E910012A460023FCF73C
:1037D00028FD00F035F8A064D4E914012A4600233E
:1037E000FCF7EEFC0022D0F1FF338A4101D24FF00A
:1037F000FF30A065D4E90B10A36A626B181A61EB65
:1038000002012A460023FCF70CFD00F019F8E065E0
:10381000BDE8F087281B0020AC1D030010B5702107
:103820000548FCF748FD0548034902780A70002264
:103830004A70427010BD0000281B002020020020AA
:103840006FF0004300221B1A8A4102DA6FF0004039
:1038500070474FF00042821A71F1FF31F8DA4FF0F1
:10386000004070472DE9F04140F2BC56324600233B
:10387000FCF7D7FC0C4F0446A2FB070C0D4603FBDC
:1038800007C3002102FB013132460023FCF7C9FCCB
:103890003A46A4FB026705FB0272002304FB0322E5
:1038A00080195141BDE8F081AC1D03002DE9F047BE
:1038B0000D46214990469A460A7832B189464978A0
:1038C0001E4C29B1226E424502D10020BDE8F0878E
:1038D000D4E90232C1171B184A41C4E90232D4E9C3
:1038E0000463EA1776195341C4E90463D4E9066313
:1038F00047195141F2194B41C4E90623FFF7EAFE8B
:10390000074600262846FFF7E5FED4E908123818D6
:10391000764140185641C4E90806FFF7FBFEC4F89B
:1039200068A0C4F86080606E401C60660120607012
:1039300089F80100CAE7000020020020281B0020AF
:10394000C217401842EBE1726FF000434FF00001E4
:103950001B1A914102DA6FF0004070474FF00041AE
:10396000411A72F1FF31F8DA4FF0004070470068F9
:10397000436A08880B80181A00B2002A04D010F598
:10398000004F02D0404200B2704747F6FF707047C8
:1039900072B6FEE778B50024009490F83C20012A26
:1039A00019D0012280F83C200A6807230568092AFB
:1039B00013D9EE680A3A02EB420293409E43EE604E
:1039C0000B788A680A3B03EB43039A400368DD687F
:1039D0002A43DA6010E0022078BD2E6902EB420231
:1039E00093409E432E610B788A6803EB43039A4011
:1039F00003681D692A431A614A681F23072A13D2E4
:103A000005686E6B521E02EB820293409E436E630A
:103A10000B790A885B1E92B203EB83039A4003681A
:103A20005D6B2A435A6327E005680D2A12D22E6B7C
:103A3000D21F02EB820293409E432E630B790A88C9
:103A4000DB1F92B203EB83039A4003681D6B2A438A
:103A50001A6311E0EE6A0D3A02EB820293409E4334
:103A6000EE620B790A880D3B92B203EB83039A4016
:103A70000368DD6A2A43DA62164B0568144A9D42E0
:103A800006D10D68122D03D1556845F480055560A7
:103A900005689D4218D10B68102B01D0112B13D152
:103AA000536843F400035360096810290CD10A4994
:103AB0000A4A0968B1FBF2F101EB8101490000E01B
:103AC000491E00910029FBD180F83C40002078BDC0
:103AD00000230140002001408401002040420F00EB
:103AE00070B504004FF0000503D0206C002610B123
:103AF00007E0012070BD204600F01CF8666484F8E1
:103B00003C60206CC00610D4206C20F4885040F03B
:103B1000020020642046FCF771FE6664206C20F0F1
:103B2000020040F00100206400E0012584F83C60C0
:103B3000284670BD70B586B0064614216846FCF76D
:103B4000BAFB24493068884242D1234800250168E5
:103B500041F48071016000681F4900F480701439DD
:103B60000590086840F004000860086800F0040050
:103B70000590086840F0020008600868032400F01F
:103B8000020005903F208DE831006946134800F09F
:103B9000B3FA009469461248CDE9014500F0ACFA49
:103BA000114C1048C4E900050015A560C4E9035094
:103BB000400060618000A0614011C4E90705204613
:103BC000656200F043F908B1FFF7E2FEB463A66353
:103BD00006B070BD00200140443802400008024099
:103BE00000040240106402406C1400202DE9F041F2
:103BF0000446876D00F082FB064694F835000025E8
:103C0000022806D08020606584F834500120BDE889
:103C1000F0812068016821F0160101602068416987
:103C200021F080014161206C08B9A06C20B12068AE
:103C3000016821F0080101602068016821F001019C
:103C400001600CE000F05AFB801B052807D92020FA
:103C50006065032084F8350084F83450D7E7206885
:103C60000068C007EED194F85C103F208840B8602F
:103C7000012084F8350084F834500020C7E790F81C
:103C80003510022903D080214165012070470521AC
:103C900080F835100068016821F001010160002002
:103CA0007047406D704790F8350070472DE9F84334
:103CB00004464FF00009CDF8009063484FF41651C8
:103CC000A56D0068B0FBF1F72E6894F85C10082031
:103CD00000FA01F131420FD021680A6852070BD572
:103CE0000A6822F004020A6094F85C108840A86018
:103CF000606D40F00100606594F85C104FF00108C1
:103D000008FA01F0304208D021684969090604D553
:103D1000A860606D40F00200606594F85C100420BB
:103D20008840304208D021680968890704D5A86016
:103D3000606D40F00400606594F85C1010208840CD
:103D4000304218D021680968090714D5A860206896
:103D50000168490304D50068000308D5A16C07E099
:103D60000168C90503D4016821F008010160216CD4
:103D700009B12046884794F85C10202088403042E2
:103D800031D021680968C9062DD5A86094F835009E
:103D900005282068016806D0490347D5006800035C
:103DA0001DD4616C1CE021F016010160206841699E
:103DB00021F080014161206C08B9A06C20B120681D
:103DC000016821F00801016094F85C103F208840F0
:103DD000A86084F8358084F83490216D1FE0E16B91
:103DE00009B120468847606D00282BD0606DC00760
:103DF00014D0052084F835002068016821F0010105
:103E000001600098401C0090B84203D82068006808
:103E1000C007F6D184F8358084F83490E16C00292D
:103E200010D001B02046BDE8F04308470168C9053D
:103E3000D5D4016821F01001016084F8358084F840
:103E40003490CCE7BDE8F883840100202DE9F041EF
:103E5000044600F053FA06465CB1022084F83500AF
:103E6000002584F834502068016821F001010160C8
:103E70000DE00120BDE8F08100F040FA801B05282C
:103E800005D920206065032084F83500F2E720681A
:103E90000068C007F0D12268116820480140D4E9C9
:103EA00001031843D4E903363343184363691843C5
:103EB000A3691843E3691843236A18430843616AF6
:103EC000042903D1D4E90B13194308431060206877
:103ED0004069666A20F0070130460E430127042836
:103EE0000CD1A06A0643E06A40B12046FFF79EFB72
:103EF00020B14020606584F83570BAE720684661DB
:103F00002046FFF77FFB94F85C203F2191408160C1
:103F1000656584F835700020ACE700003F8010F044
:103F20002DE9F0410446866D90F834000025012803
:103F30000DD0012084F8340094F835700020012F52
:103F400007D084F8340002252846BDE8F08102201D
:103F5000FBE7022784F8357060652046FFF790FB89
:103F600094F85C103F208840B0602068016841F000
:103F700016010160206C20B12068016841F0080141
:103F800001602068016841F001010160DCE7000088
:103F90002DE9F04F0022DFF838B101264FF00F096C
:103FA00006FA02F401EA0403A3427DD122F00307DA
:103FB0005F44D7F8088895074FEA157C09FA0CFA90
:103FC0000AEA0805DFF80C81404502D14FF00008ED
:103FD00032E0DFF80481404502D14FF001082BE0C8
:103FE000DFF8F880404502D14FF0020824E0DFF806
:103FF000F080404502D14FF003081DE0DFF8E48077
:10400000404502D14FF0040816E0DFF8DC8040455F
:1040100002D14FF005080FE0DFF8D080404502D113
:104020004FF0060808E0DFF8C880404502D14FF0A5
:10403000070801E04FF0080808FA0CF8A84522D15B
:104040002C4DD5F800C02CEA030CC5F800C005F1D2
:10405000040CDCF800509D43CCF80050254D0C3585
:10406000D5F800C02CEA030CC5F800C02D1FD5F808
:1040700000C02CEA030CC5F800C0D7F8085825EAA0
:104080000A05C7F80858056857000323BB409D433D
:104090000560D50800EB8505D5F820C057074FEA25
:1040A000D76809FA08F700E00CE02CEA070CC5F81D
:1040B00020C0C5689D43C5604568A54345608468C8
:1040C0009C438460521C102AFFF46AAFBDE8F08F55
:1040D000003001400000024000040240000802409D
:1040E000000C024000100240001402400018024080
:1040F000001C0240003C01402DE9F84FDFF8BCA154
:104100000022012503264FF00F090AF1040BAAF142
:10411000040E00BF0B6805FA02F42340A34270D1DD
:104120000F7907F00307012F01D0022F16D18768FE
:104130004FEA420806FA08FC27EA0C07D1F80CC03F
:104140000CFA08FC4CEA070CC0F808C04768A74303
:104150000C79C4F3001494403C4344600C79E4436C
:10416000A4070AD0C4684FEA420C06FA0CF7BC4315
:104170008F6807FA0CF72743C7600C7904F0030433
:10418000022C12D1D40800EB840CDCF82040570735
:10419000FF0E09FA07F824EA0804D1F8108008FA9B
:1041A00007F848EA0408CCF8208004684FEA420C7B
:1041B00006FA0CF7BC430F7907F0030707FA0CF770
:1041C000274307604C6814F4403F70D03C4C27688C
:1041D00047F480472760246822F0030704F48044F2
:1041E0000094384C07EB040CDCF8084897074FEABA
:1041F000177809FA08F7BC43334FB84202D10027B9
:1042000024E054E0314FB84201D101271EE0304F85
:10421000B84201D1022719E02E4FB84201D103273D
:1042200014E02D4FB84201D104270FE02B4FB842C4
:1042300001D105270AE02A4FB84201D1062705E03F
:10424000284FB84201D1072700E0082707FA08F7EE
:104250002743CCF80878DAF800405746D1F804C074
:104260009C435FEACC2C00D51C433C60DBF800404B
:104270005F46D1F804C09C435FEA8C2C00D51C43F8
:104280003C60DEF800407746D1F804C09C435FEA0A
:104290008C3C00D51C433C60084F083F3C68D1F87B
:1042A00004C09C435FEACC3C00D51C433C60521CDC
:1042B000102AFFF42FAFBDE8F88F0000083C014042
:1042C0004438024000300140000002400004024037
:1042D00000080240000C024000100240001402409E
:1042E00000180240001C02400069084000D0012074
:1042F00070470AB1816170470904FBE70148806893
:1043000070470000780100207047704710B5040026
:1043100013D0242084F83D002068016821F00101B9
:104320000160204600F0A8FA0020206484F83D00D7
:1043300044F8300FA073207310BD012010BD2DE98B
:10434000F041016804464A694E6890F83E00002535
:10435000D743FA0506D4F243D20503D46FF4807232
:1043600001254A61B90508D4F143C90505D422687D
:104370006FF4007145F002055161790525D4F143D0
:10438000C90522D4638D94F83D10226B202808D1F2
:104390003BB9212910D029290ED0282901D1212A61
:1043A0000AD022686FF48061516145F0040510283D
:1043B00006D0402804D008E0204602F0CDF904E001
:1043C0002068016841F400710160380508D4F043A9
:1043D000C00505D421686FF4006045F00805486108
:1043E000002D07D0206C284320642046BDE8F04112
:1043F00001F036BEBDE8F0812DE9F04702680021EA
:104400005368C66A90F83E4090F83D50102C12D088
:10441000402C10D0046C002C7DD05469E443A607D6
:104420007AD4DE43B60577D4036C03B19169BDE855
:10443000F04702F06DB9976951694FF42A0CC943EE
:104440005FEAC1784FF02A4904D066452AD04E452C
:1044500028D010E0DE43B6050DD4C16A614501D114
:10446000012103E0C16A494501D10821C162BDE8CB
:10447000F04702F0B3B80E0716D4DE43B60513D4E6
:10448000416CC9B21161416B09B1C96B29B9816B2A
:10449000002907D0C96B002904D00068416841F4A5
:1044A00000614160BDE8F0878E0706D4DE43B605A3
:1044B00003D4BDE8F04702F005B8FE435268760722
:1044C0004FEA02521DD4002AECDB0A0608D4DA4374
:1044D000520505D4490705D5BDE8F04701F096BF60
:1044E0004907DFD4D9438905DCD4212D05D0402CE0
:1044F000D8D1BDE8F04702F0B7B8BDE8F04701F009
:1045000043BF002ACEDB4A060BD4DA43520508D457
:10451000490708D501E00DE00EE0BDE8F04701F0E5
:10452000B9BE4907BED4D9438905BBD4BDE8F0471D
:1045300001F042BE916970E7E10606D4D9438905CE
:1045400003D4BDE8F04702F04FB92821212D27D030
:10455000292D25D0650655D4DD436D0552D4640759
:1045600052D590F83D30448D002C9BD01269446A9E
:104570002270426A521C4262428D521E4285428D16
:10458000002A8FD12A2B8DD10268536823F48063CF
:1045900053602222026380F83D1000F009FA81E79F
:1045A000250623D4DD436D0520D4640720D590F87B
:1045B0003D30448D002CF2D0446A24781461426A64
:1045C000521C4262428D521E4285428D002AE6D123
:1045D000292BE4D10268536823F4806353602122BD
:1045E000026380F83D1000F0E4F95BE76107D6D480
:1045F000D9438905D3D4418D0029D0D0416A0978A7
:1046000011610AE06107CAD4D9438905C7D4418D35
:104610000029C4D01169426A1170416A491C416283
:10462000418D491E41853DE7FDF75CBA70B5040038
:1046300025D094F83D00002520B984F83C50204650
:1046400000F050F9242084F83D002068016821F032
:10465000010101602068016841F4004101602068A7
:10466000016821F40041016000F0E8FA4D4A6168F8
:10467000914201D84C4900E04C49884201D20120C6
:1046800070BD4B492368B0FBF1F15E6826F03F0630
:104690000E435E606368934206D94FF496735943A4
:1046A0004FF47A73B1FBF3F12368491C1E6A26F0BC
:1046B0003F06314319626168914210D84900401E9B
:1046C000B0FBF1F2521CC2F30B02042A01D2042007
:1046D00022E0B0FBF1F0401CC0F30B001CE0A2682C
:1046E000F2B301EBC10303EB0116431EB3FBF6F378
:1046F0005B1C43F480431B0549D092B301EBC1021C
:1047000002EB0111401EB0FBF1F0401CC0F30B00A6
:1047100040F4804040F400402168CA694CF6FF73C1
:104720009A431043C861D4E9071001432068026826
:1047300022F0C00211430160D4E903010143206863
:10474000826848F2FF339A4311438160D4E905013E
:1047500008432168CA6822F0FF021043C86001E0E4
:104760000EE016E02068016841F001010160256457
:10477000202084F83D00256384F83E50002070BD61
:1047800001EB4106431EB3FBF6F35B1CB3E70120CC
:10479000C2E701EB4101401EB0FBF1F0401CC0F349
:1047A0000B00B7E7A086010080841E0000093D00D1
:1047B00040420F0070477047FDF7F6BA78B5002405
:1047C000009490F83D50202D4ED1284D46F2A81669
:1047D0002D68B5FBF6F505EBC50606EB051500954E
:1047E0006D1E009506D00568AD69ED43AD070BD48D
:1047F000009DF5E740F8304F202141738473016933
:1048000041F0200101612FE090F83C50012D2BD0A8
:10481000012580F83C5005682E68F60703D12E6804
:1048200046F001062E6005682E6826F400662E60AC
:10483000212580F83D50102580F83E5004644262E6
:104840004385428D02850A4AC262416480F83C4039
:1048500001684A6842F4E0624A600068016841F415
:1048600080710160002078BD022078BD84010020A5
:104870000000FFFF7047704710B50068154A1649E1
:10488000164C904213D1086820F4001008604021B3
:104890002046FFF77DFB80212046FFF779FB1F2094
:1048A00000F0E2F8BDE81040202000F0DDB80C4A2E
:1048B00090420ED1086820F480000860111520464F
:1048C000FFF766FB2046BDE810404FF40061FFF79C
:1048D0005FBB10BD0054004040380240000402405D
:1048E00000580040F0B587B0044614216846FBF735
:1048F000E2FC27682B4CDFF8A8C0002229491223CC
:10490000032504262848103467452AD10F6847F04C
:1049100002070F60096802AF01F002010591C02192
:10492000CDE9001387E864006946FFF7E5FB2068DE
:1049300040F4001020602068002200F40010059070
:1049400003211F2000F0AEF81F2000F09EF8002287
:104950000321202000F0A6F8202000F096F807B0F0
:10496000F0BDDFF848C06745F9D10F6847F002078E
:104970000F60096802AF01F0020105914FF4406138
:10498000CDE9001387E864006946FFF7B5FB2068AE
:1049900040F480002060206800F480000590DEE78D
:1049A00000540040303802400004024000580040EB
:1049B00070477047024881680278114481607047EF
:1049C000780100200B4810B5016841F400710160C6
:1049D000016841F480610160016841F48071016007
:1049E000032000F07FF80F2000F006F800F024F814
:1049F000002010BD003C024070B50D4D04464FF440
:104A00007A712878B1FBF0F00A490968B1FBF0F03F
:104A100000F01AFB48B9102C07D200222146501E84
:104A200000F040F800206C6070BD012070BD0000F7
:104A300078010020840100200A4808B5016841F48B
:104A400080410160006800F4804000900548001F2C
:104A5000016841F080510160006800F080500090D2
:104A600008BD00004438024000280DDB00F01F02A2
:104A7000012191404009800000F1E020C0F8801140
:104A8000BFF34F8FBFF36F8F7047002809DB00F033
:104A90001F02012191404009800000F1E020C0F890
:104AA00000117047F0B40E4B1B680C46C3F3022391
:104AB000C3F10705042D00D90425191D072901D2CA
:104AC000002300E0DB1E012606FA05F1491E214005
:104AD00099409E40761E16403143F0BC09F08CB8D8
:104AE0000CED00E0064900F0070208684FF6FF03EE
:104AF000184040EA0220034A104308607047000053
:104B00000CED00E00000FA052DE9F0470E46050027
:104B100065D0DFF81481D8F80000F7B200F0070084
:104B2000B04207D288F80070D8F8000000F0070003
:104B3000B04254D128683D4C810712D5400703D5B7
:104B4000206840F4E05020602878000703D52068F2
:104B500040F4604020602068A96820F0F00008431D
:104B600020602878C0072DD03049686808390128AE
:104B700012D0022813D0032811D009688907002910
:104B80002DDA216821F0030101432160FFF7B6FB14
:104B9000814641F2883A0EE009688903EFE7096827
:104BA0008901ECE7FFF7AAFBA0EB0901514502D907
:104BB0000320BDE8F0872068696800F00C00B0EBC6
:104BC000810FEFD1D8F80010404601F00701B14243
:104BD00007D90770006800F00700B04201D001203B
:104BE000E7E72878400705D52068E96820F4E05019
:104BF000084320602878000706D52068296920F43A
:104C0000604040EAC100206000F038F82168084A9E
:104C1000C1F30311515CC8400649086006480068AA
:104C2000FFF7EAFE0020C4E7003C024008380240DB
:104C300046E60008840100207C0100200448054964
:104C400000680968044AC1F38221515CC84070477A
:104C5000840100200838024056E60008044805494F
:104C600000680968044AC1F34231515CC84070478A
:104C7000840100200838024056E60008154810B5A7
:104C8000006810F00C02144813D04110042A0FD011
:104C9000082A0ED10F4C241F2268236802F03F021D
:104CA0005B0207D52068C0F38810A0FB010106E075
:104CB000084610BD2168C1F38811A1FB0001002343
:104CC000FBF77EFA2168C1F30141491C4900B0FBA2
:104CD000F1F010BD083802400024F4002DE9F84F2F
:104CE00004006ED02078DFF84C93C007A9F10405CA
:104CF0004AD009F104000168C1F38101012908D0FB
:104D00000068C0F3810002280AD1D9F800004002EF
:104D100006D52868800337D560680028E1D033E0E5
:104D20006068B0F5803F10D0B0F5A02F286810D093
:104D300020F480302860286820F480202860606893
:104D4000A8B1FFF7DBFA06460DE0286840F4803092
:104D5000F4E740F480202860F7E700BFFFF7CEFAC1
:104D6000801B642873D828688003F7D50CE0FFF710
:104D7000C5FA064605E000BFFFF7C0FA801B6428AD
:104D8000F0D828688003F7D42078DFF8AC82800759
:104D90004FF0000A3ED5A748001D016811F00C0F26
:104DA00008D00068C0F3810002280BD1D9F80000B8
:104DB000400207D42868800716D5E068012800D192
:104DC00012E033E1E068B8B10120C8F80000FFF755
:104DD00095FA064605E000BFFFF790FA801B02280F
:104DE000C0D828688007F7D52868216920F0F80026
:104DF00040EAC10028600DE0C8F800A0FFF77EFA85
:104E0000064604E0FFF77AFA801B02281FD82868BC
:104E10008007F7D42078000722D5864F874861693C
:104E2000703771B101210160FFF768FA064604E0AE
:104E3000FFF764FA801B022809D838688007F7D585
:104E40000EE0C0F800A0FFF759FA064605E082E040
:104E5000FFF754FA801B02287DD838688007F7D402
:104E60002078400768D5DFF8CCB100270BF13C0B68
:104E7000DBF80000C0000BD4DBF8001041F08051DB
:104E8000CBF80010DBF80000012700F08050009004
:104E90006B4E3068C00510D4306840F480703060CC
:104EA000FFF72CFA009005E0FFF728FA0099401A66
:104EB000022850D83068C005F6D55E4EA0686C3622
:104EC00001280FD00528306810D020F00100306094
:104ED000306820F004003060A068B8B1FFF70EFA27
:104EE00000900FE0306840F00100F4E740F004006B
:104EF0003060F7E7FFF702FA0099411A41F2883073
:104F0000814266D830688007F4D50EE0FFF7F6F9E5
:104F1000009007E0FFF7F2F90099411A41F288305A
:104F2000814256D830688007F4D42FB1DBF80010E6
:104F300021F08051CBF80010A069C8B33D49091D8C
:104F40000968C1F3810102294AD00228504607D0DE
:104F5000C8F8600000E03CE0FFF7D0F904463BE011
:104F60004746C8F86000FFF7C9F9064605E000BFEC
:104F7000FFF7C4F9801B02282BD828688001F7D4DA
:104F8000D4E907010843A16A2E4A490802EB01410E
:104F9000626A41EA8211084394F82C1040EA0161E8
:104FA000C9F8001001203866FFF7A8F9044606E0AA
:104FB0003EE000BFFFF7A2F9001B022809D82868CD
:104FC0008001F7D534E000BFFFF798F9001B0228F5
:104FD00002D90320BDE8F88F28688001F4D427E0C7
:104FE0000128F7D0D9F80000E26900F4800191426D
:104FF0001CD1226A00F03F01914217D147F6C071DF
:10500000626A0140B1EB821F10D1A26A4FF0FF33F8
:1050100000F4403103EB5202B1EB024F06D194F899
:105020002C1000F07060B0EB016F01D00120D1E7CF
:105030000020CFE70438024000004742800E47427C
:10504000007000400000FFFF10B5401EB0F1807FEF
:1050500001D3012010BD4FF0E02460610F216017E3
:1050600008F0CAFD0020A06107202061002010BDCB
:1050700010B590F83C20012A22D0012280F83C2073
:10508000CA688C6822F4407222434C6822F4806221
:1050900022430C6822F4006222430C6922F48052FD
:1050A00022434C6922F400522243C969002322F4AE
:1050B00080420A4301684A6480F83C30002010BDF9
:1050C000022010BD70B590F83C20012A32D0012496
:1050D00080F83C40022280F83D2003685A689D68B1
:1050E00022F070060A6832435A60134B02689A42F3
:1050F00014D0B2F1804F11D0104B9A420ED0104B09
:105100009A420BD00F4B9A4208D00F4B9A4205D0CF
:105110000E4B9A4202D00E4B9A4204D1496825F0B8
:1051200080031943916080F83D40002180F83C10D5
:10513000084670BD022070BD000001400004004020
:1051400000080040000C0040000401400040014005
:105150000018004010B5040003D094F83D0010B1D1
:1051600007E0012010BD002084F83C00204600F03C
:105170001FF8022084F83D00211D206803F0D0FFB5
:10518000012084F8460084F83E0084F83F0084F84B
:10519000400084F8410084F8420084F8430084F819
:1051A000440084F8450084F83D00002010BD000054
:1051B00008B50068B0F1804F08D10548016841F09A
:1051C00001010160006800F00100009008BD0000CE
:1051D0004038024070B5044690F83C000025012894
:1051E00017D0012684F83C60022084F83D00206836
:1051F000826822F0770222F47F4282600868502899
:1052000038D00DDC20284FD005DC90B3102811D108
:105210004AE0022070BD302846D040280AD13BE049
:1052200060282FD070280DD0B0F5805F03D0B0F586
:10523000005F12D0012584F83D60002084F83C0016
:10524000284670BDCB68D1E90121206803F0DDFF5D
:105250002068816841F0770109E0CB68D1E901213C
:10526000206803F0D2FF2068816841F480418160AA
:10527000E1E719E0CA684968206804F09BF850210A
:10528000206806E0CA684968206804F0A4F8602134
:10529000206803F0C4FFCEE7CA684968206804F0BC
:1052A00089F840212068F4E7226801461046F0E7BB
:1052B0002DE9F0410D46040003D094F83D0018B1EB
:1052C00008E00120BDE8F081002084F83C00204681
:1052D00000F040F8022084F83D002068816844F224
:1052E000070291438160211D206803F019FF2268A5
:1052F00090689169166A2B68AF69034340F20330E6
:10530000814341EA0721A868EF6908434FF6FC4151
:105310008843E96840EA0720014328692F6A0001B1
:1053200040EA0730084369686D6926F0AA0646EA34
:105330000515294393602268906154F8460B016279
:10534000012004F81F09E0752076E0762077A0752B
:105350000020B7E730B587B0044614216846FAF755
:10536000AAFF214824681F4D00221F49103802233C
:10537000AC4216D10C6844F002040C60096801F0DC
:1053800002010591016841F004010160006869466D
:1053900000F004000590C0200090CDE901321348D0
:1053A00019E0134DAC421AD10C6844F004040C60AF
:1053B000096801F004010591016841F008010160EC
:1053C0000068694600F0080005904FF440500090D6
:1053D000CDE901320748CDE90323FEF78DFE07B082
:1053E00030BD000000040040403802400008024088
:1053F00000080040000C024070B590F83E60044682
:1054000090F83F5090F8423090F84320022021B1AC
:1054100004290ED0012E1BD114E0012E18D1012B2E
:1054200016D184F83E0084F8420001220021206851
:1054300020E0012D0CD1012A0AD184F83F0084F824
:10544000430014E0012D03D1012B01D1012A01D029
:10545000012070BD84F83E0084F83F0084F84200CB
:1054600084F8430001220021206803F0C1FE0122DC
:105470000421206803F0BCFE2068016841F00101AE
:105480000160002070BD30B5044600680D0023D0D7
:10549000042D04D00022114603F0AAFE2068002249
:1054A000042103F0A5FE2068016A41F211121142A5
:1054B00007D1016A9210114203D1016821F0010164
:1054C000016001205DB1042D0DD004F83E0F607025
:1054D00020716071002030BD00221146E1E704F820
:1054E0003E0F2071F6E704F83F0FFAE730B587B0BA
:1054F000044614216846FAF7DEFE2468174D0021A1
:10550000174802230322AC4211D1046844F001047D
:1055100004600068CDE9021200F001000590D80196
:10552000CDE900030120049069460E4812E00E4DBB
:10553000AC4211D1046844F0100404600068CDE965
:10554000021200F0100005906020CDE900036946CA
:1055500004920648FEF7D0FD07B030BD00000140C0
:10556000303802400000024000400140001002407C
:1055700070B5044690F83C0000260D4601280FD077
:10558000012084F83C006AB1042A1DD0082A2FD0DB
:105590000C2A3FD00126002084F83C00304670BD24
:1055A000022070BD206803F043FE2068816941F04D
:1055B000080181612068816921F00401816120680E
:1055C00081692A69114311E0206803F061FE2068B7
:1055D000816941F4006181612068816921F4806101
:1055E0008161206881692A6941EA02218161D2E7EB
:1055F000206803F083FE2068C16941F00801C161A1
:105600002068C16921F00401C1612068C1692A696B
:10561000114311E0206803F0A5FE2068C16941F440
:105620000061C1612068C16921F48061C1612068A5
:10563000C1692A6941EA0221C161ACE710B50400E1
:1056400003D094F83D0010B107E0012010BD002008
:1056500084F83C00204600F01FF8022084F83D004A
:10566000211D206803F05CFD012084F8460084F8C9
:105670003E0084F83F0084F8400084F8410084F83C
:10568000420084F8430084F8440084F8450084F81C
:105690003D00002010BD000008B50C4A01680C4810
:1056A000914207D1016841F001010160006800F0FA
:1056B000010009E0074A914207D1016841F48031B5
:1056C0000160006800F48030009008BD00000140D7
:1056D000443802400040014010B50446022249B15E
:1056E00004290ED0082913D094F84100012816D0BF
:1056F000012010BD94F83E000128F9D184F83E2025
:105700000FE094F83F000128F2D184F83F2008E030
:1057100094F840000128EBD184F8402001E084F89F
:1057200041200122206803F063FD16492068164AD3
:10573000884201D0904203D1436C43F40043436458
:105740002068884213D0B0F1804F10D00F498842B2
:105750000DD00F4988420AD00E49884207D09042A6
:1057600005D00D49884202D00C49884204D1816895
:1057700001F00701062903D0016841F00101016031
:10578000002010BD00000140000401400004004062
:1057900000080040000C004000400140001800409C
:1057A00030B504460D460068002203F021FD194B78
:1057B00041F2111120688A10984202D0164B98428B
:1057C00009D1036A0B4206D1036A134203D1436C29
:1057D00023F4004343642068036A0B4206D1016A44
:1057E000114203D1016821F00101016001203DB1A6
:1057F000042D08D0082D09D084F84100002030BDC8
:1058000084F83E00FAE784F83F00F7E784F84000A8
:10581000F4E700000000014000040140704770B54B
:10582000044620680C3050E8001F21F4F07140E875
:105830000012002AF5D12068143050E8001F21F032
:10584000010140E80012002AF5D1206B012809D19E
:1058500020680C3050E8001F21F0100140E80012D1
:10586000002AF5D1206840694FF0100600064FF07D
:10587000000515D52068143050E8001F21F0800184
:1058800040E80012002AF5D1A06B48B10565A06B75
:10589000FEF7ACF920B1A06BFEF703FA202824D064
:1058A00020684069400615D52068143050E8001F74
:1058B00021F0400140E80012002AF5D1E06B48B128
:1058C0000565E06BFEF792F920B1E06BFEF7E9F9B0
:1058D00020280AD0E584E5856564202084F842000C
:1058E00084F841002563002070BD6664032070BD0C
:1058F00070B5044620680C3050E8001F21F4907108
:1059000040E80012002AF5D12068143050E8001F4A
:1059100021F0010140E80012002AF5D1206B012896
:1059200009D120680C3050E8001F21F0100140E838
:105930000012002AF5D1206840694FF000054006AA
:1059400015D52068143050E8001F21F0400140E8D0
:105950000012002AF5D1E06B48B10565E06BFEF757
:1059600045F920B1E06BFEF79CF9202806D0E585CB
:10597000202084F842002563002070BD1020606460
:10598000032070BD70B5044620680C3050E8001F3D
:1059900021F0C00140E80012002AF5D120684069DA
:1059A0001546000615D52068143050E8001F21F078
:1059B000800140E80012002AF5D1A06B48B10565CE
:1059C000A06BFEF713F920B1A06BFEF76AF920284F
:1059D00005D0E584202084F84100002070BD10200F
:1059E0006064032070BD10B50446FBF7A1FB2046A0
:1059F000FBF75EFE2046BDE81040FCF757BA0000FA
:105A0000F8B5016804460868CA684B6910F00F0FC2
:105A10004FF000055AD003F0010602F490773743A7
:105A200065D0C10705D0D10503D5616C41F00101F6
:105A30006164410705D5D90703D0616C41F00201CB
:105A40006164810705D5D90703D0616C41F0040179
:105A50006164010707D502F02001314303D0616C76
:105A600041F008016164616C00293BD0800604D5D7
:105A7000900602D5204607F0A8FB20684069616CBB
:105A8000C0F3801001F00801014320462BD007F03D
:105A900067FB20684069400621D52068143050E833
:105AA000001F21F0400140E80012002AF5D1E06B10
:105AB000A8B172490165E06BFEF7E1F8002811D04A
:105AC000E06B016D01B0BDE8F040084783060ED5DC
:105AD00093060CD52046BDE8F84007F076BB20467B
